:100000000C9462000C948A000C948A000C948A0070
:100010000C948A000C948A000C948A000C948A0038
:100020000C948A000C948A000C948A000C948A0028
:100030000C948A000C948A000C948A000C948A0018
:100040000C945F030C948A000C948A000C948A0030
:100050000C948A000C948A000C948A000C948A00F8
:100060000C94A9030C948A000000000023002600D1
:10007000290000000000240027002A0000000000E2
:10008000250028002B0004040404040404040202D4
:100090000202020203030303030301020408102007
:1000A0004080010204081020010204081020000012
:1000B0000008000201000003040700000000000027
:1000C0000000D40511241FBECFEFD8E0DEBFCDBFA6
:1000D00011E0A0E0B1E0E4E0F0E102C005900D9293
:1000E000A231B107D9F721E0A2E1B1E001C01D9230
:1000F000AA3CB207E1F710E0C2E6D0E004C02197C5
:10010000FE010E94F507C136D107C9F70E941C0500
:100110000C9400080C94000090E0FC01E255FF4FA5
:100120002491FC01E656FF4F3491FC01EA57FF4F42
:10013000E491EE2309F43CC0222339F1233091F0FD
:1001400038F42130A9F0223001F584B58F7D12C03A
:10015000273091F02830A1F02430B9F4809180004C
:100160008F7D03C0809180008F77809380000DC0C9
:1001700084B58F7784BD09C08091B0008F7703C0AC
:100180008091B0008F7D8093B000F0E0EE0FFF1FF4
:10019000E458FF4FA591B4919FB7F894611104C042
:1001A0008C913095382302C0EC913E2B3C939FBF3D
:1001B0000895CF93DF9390E0FC01E656FF4F249122
:1001C000FC01EA57FF4F8491882361F190E0880F8A
:1001D000991FFC01EE58FF4FC591D491FC01E458E2
:1001E000FF4FA591B491611109C09FB7F894888120
:1001F000209582238883EC912E230BC0623061F41A
:100200009FB7F8948881322F309583238883EC91AF
:100210002E2B2C939FBF06C08FB7F894E8812E2B0E
:1002200028838FBFDF91CF9108953FB7F8948091D5
:10023000C6019091C701A091C801B091C90126B52E
:10024000A89B05C02F3F19F00196A11DB11D3FBF0E
:10025000BA2FA92F982F8827820F911DA11DB11D9C
:10026000BC01CD0143E0660F771F881F991F4A9597
:10027000D1F708958F929F92AF92BF92CF92DF9263
:10028000EF92FF926B017C010E9415014B015C0112
:10029000C114D104E104F104F1F00E941501DC0164
:1002A000CB0188199909AA09BB09883E9340A10589
:1002B000B10570F321E0C21AD108E108F10888EE17
:1002C000880E83E0981EA11CB11CC114D104E10466
:1002D000F10419F7DDCFFF90EF90DF90CF90BF9042
:1002E000AF909F908F900895E091B101F091B2018D
:1002F000309729F01092AE011092AD010994089543
:10030000CF93DF93AC01E091B301F091B40130974A
:10031000F1F09091B0018091AF019817C0F090E09A
:10032000292F30E02617370754F4D901A15EBE4FBC
:10033000EA01C20FD31F28812C939F5FF1CF109247
:10034000B0016093AF01CB01DF91CF910994DF91B0
:10035000CF910895CF92DF92EF92FF920F931F9368
:10036000CF93DF936C017A018B01C0E0D0E0CE1512
:10037000DF0581F0D8016D918D01D601ED91FC91E1
:100380000190F081E02DC6010995892B11F021968D
:10039000EECF7E01C701DF91CF911F910F91FF90AA
:1003A000EF90DF90CF90089585ED8093BC00809111
:1003B000BC0084FDFCCF1092AC01089540915F0118
:1003C000262F30E0240F311D21323105DCF420913D
:1003D000AC012430C9F4FC0180E090E0861758F4A9
:1003E00030915F012191DC01A15CBE4FA30FB11DD3
:1003F0002C930196F3CF80915F01680F60935F01AA
:1004000080E0089581E0089582E008950895E091E4
:10041000B0018091AF01E81730F4F0E0E15EFE4FEB
:10042000808190E008958FEF9FEF08959091B00143
:100430008091AF01981750F4E92FF0E0E15EFE4F94
:10044000208130E09F5F9093B00102C02FEF3FEF1B
:10045000C90108958091AF0190E02091B001821B05
:1004600091090895CF93DF93CB01EA01642F0E9495
:10047000DE01CE01DF91CF910895CF93DF931F92DC
:10048000CDB7DEB7698361E0CE0101960E94DE013F
:1004900081E090E00F90DF91CF910895089580E082
:1004A00090E0089580911E01813019F0823009F0AA
:1004B000089542E050E06CE171E085EB91E00C942E
:1004C00032020E94FB072F923F924F925F926F92EF
:1004D0007F928F929F92AF92BF92CF92DF92EF92D4
:1004E000FF920F931F93CF93DF936CE1E62E61E0B1
:1004F000F62E70E1C72ED12CE4E2AE2EB12CFCE931
:100500002F2EF0E03F2EA8E88A2EA0E09A2E8091B0
:10051000AF0190E02091B001821B910918161906D5
:100520000CF0BAC085EB91E00E94160280931E0188
:10053000813061F0823059F760E083E00E948C00E6
:10054000C6010197F1F7CAE0D0E04FC0C2E1D1E0A7
:10055000FE0180E480937C0080917A008064809327
:100560007A0080917A0086FDFCCF809178002091FE
:10057000790090E0922B81939193C6010197F1F756
:10058000EE16FF0631F769917991072E000C880B62
:10059000990B0E94FC069B01AC01C301B2010E94B1
:1005A000E6052B013C01EC16FD0669F720E030E082
:1005B00040EA50E40E9452062DE038E643E55BE352
:1005C0000E9488079B01AC0163E373E383E590E439
:1005D0000E94520620E030E040E85FE30E94E5051B
:1005E00020E030E44CE156E446C061E083E00E9444
:1005F0008C00C5010197F1F760E083E00E948C0058
:10060000F1016491F4018491E82FF0E0EE0FFF1FF7
:10061000E859FF4F859194910CE712E920E030E012
:10062000462F0E94D704611571058105910531F1AE
:10063000DC01CB010196A11DB11D34E0880F991F8B
:10064000AA1FBB1F3A95D1F743E0B695A79597959A
:1006500087954A95D1F70097A105B10579F0BC01BE
:10066000CD0196958795779567950E94FA062AE1C0
:1006700038EA4CE05DE30E94880707C0219709F043
:10068000B4CF60E070E080E89FEB0E94C4067093F6
:100690001C0160931D013BCFDF91CF911F910F9102
:1006A000FF90EF90DF90CF90BF90AF909F908F9092
:1006B0007F906F905F904F903F902F9008951F9282
:1006C0000F920FB60F9211242F933F938F939F9306
:1006D000AF93BF938091C2019091C301A091C401D7
:1006E000B091C5013091C10126E0230F2D3720F4D0
:1006F0000296A11DB11D05C029E8230F0396A11D77
:10070000B11D2093C1018093C2019093C301A093B6
:10071000C401B093C5018091C6019091C701A09119
:10072000C801B091C9010196A11DB11D8093C601F8
:100730009093C701A093C801B093C901BF91AF9135
:100740009F918F913F912F910F900FBE0F901F900F
:1007500018951F920F920FB60F9211242F933F936B
:100760004F935F936F937F938F939F93AF93BF93B9
:10077000EF93FF938091B900887F803609F49CC085
:1007800068F5883209F45BC090F4803109F454C0F4
:1007900038F4882309F4F6C0883009F44DC0F6C057
:1007A000883109F44CC0803209F45DC0EFC0803458
:1007B00009F468C048F4803309F455C0883309F05F
:1007C000E5C080938201D8C0803509F44FC08835D8
:1007D00009F45DC0883409F0D9C0D6C0883909F45D
:1007E000C7C0A8F4883709F467C038F4883609F41C
:1007F00063C0803709F460C0C9C0883809F4B8C044
:10080000803909F45FC0803809F0C0C05BC0803B0C
:1008100009F486C038F4803A09F466C0883A09F4CD
:100820007FC0B4C0803C09F4A7C0883C09F4A4C0D0
:10083000883B09F48AC0AAC08091A50110C090919C
:10084000A4018091A301981770F5E091A40181E0C3
:100850008E0F8093A401F0E0ED57FE4F80818093CE
:10086000BB0085EC86C0809382018EC0E091A4011C
:1008700081E08E0F8093A4018091BB00F0E0ED57E2
:10088000FE4F80839091A4018091A3016EC0E091FE
:10089000A40181E08E0F8093A4018091BB00F0E061
:1008A000ED57FE4F80838091AB0181116DC081E0D7
:1008B0008093AA0184EA61C083E08093AC01109226
:1008C0008101CFCF80918101803208F051C0E09149
:1008D000810181E08E0F809381018091BB00F0E067
:1008E000EF59FE4F8083BDCF85EC8093BC00109202
:1008F000AC0180918101803230F4E0918101F0E01F
:10090000EF59FE4F10826091810170E0E091A601E5
:10091000F091A70181E691E009951092810136C01E
:1009200084E08093AC011092600110925F01E0912D
:10093000A801F091A901099580915F01811105C07D
:1009400081E080935F0110923F01E091600181E0BE
:100950008E0F80936001F0E0E15CFE4F8081809318
:10096000BB009091600180915F01981708F479CFE6
:1009700085E88093BC000AC085EC8093BC0010928F
:10098000AC0104C0109282010E94D401FF91EF914A
:10099000BF91AF919F918F917F916F915F914F9197
:1009A0003F912F910F900FBE0F901F901895CF92EF
:1009B000DF92EF92FF920F931F93E82FF92F05C05C
:1009C000015011092109310961F190819623941791
:1009D000B9F305C0015011092109310911F19081C4
:1009E00096239413F7CFC12CD12CE12CF12C0AC003
:1009F0008FEFC81AD80AE80AF80A0C151D052E054B
:100A00003F0579F080818623841791F36C2D7D2D2D
:100A10008E2D9F2D1F910F91FF90EF90DF90CF9023
:100A2000089560E070E080E090E01F910F91FF90EA
:100A3000EF90DF90CF900895789484B5826084BD64
:100A400084B5816084BD85B5826085BD85B58160D2
:100A500085BD80916E00816080936E001092810050
:100A6000809181008260809381008091810081600B
:100A700080938100809180008160809380008091CC
:100A8000B10084608093B1008091B0008160809358
:100A9000B00080917A00846080937A0080917A001F
:100AA000826080937A0080917A008E7F80937A00B2
:100AB00080917A00806880937A001092C100109231
:100AC000B0011092AF011092AE011092AD011092E0
:100AD000AC0181E08093AB011092AA0161E082E158
:100AE0000E948C0061E083E10E948C008091B9003B
:100AF0008E7F8093B9008091B9008D7F8093B9007B
:100B000080E28093B80085E48093BC0084E791E0A4
:100B10009093A9018093A80180E891E09093A701A8
:100B20008093A60186EC8093BA0082E592E09093D0
:100B3000B2018093B10183E692E09093B401809377
:100B4000B30161E08DE00E94D90061E083E00E9482
:100B5000D90060E082E00E94D90060E08EE00E944F
:100B6000D90060E083E00E948C0060E08DE00E948C
:100B70008C00C0E0D0E061E08DE00E948C006AEF64
:100B800070E080E090E00E943A0160E08DE00E9419
:100B90008C0060ED77E080E090E00E943A012097C1
:100BA00051F30E940000E7CFE5EBF1E013821282DF
:100BB00088EE93E0A0E0B0E084839583A683B783BA
:100BC00084E091E09183808308955058BB27AA2741
:100BD0000E94FD050C944E070E94400738F00E94C9
:100BE000470720F039F49F3F19F426F40C943D0791
:100BF0000EF4E095E7FB0C943707E92F0E945F079E
:100C000058F3BA17620773078407950720F079F441
:100C1000A6F50C9481070EF4E0950B2EBA2FA02DAB
:100C20000B01B90190010C01CA01A0011124FF2799
:100C3000591B99F0593F50F4503E68F11A16F04094
:100C4000A22F232F342F4427585FF3CF4695379593
:100C50002795A795F0405395C9F77EF41F16BA0B58
:100C6000620B730B840BBAF09150A1F0FF0FBB1F06
:100C7000661F771F881FC2F70EC0BA0F621F731F4F
:100C8000841F48F4879577956795B795F7959E3FAC
:100C900008F0B0CF9395880F08F09927EE0F97953D
:100CA000879508950E9466060C944E070E94470798
:100CB00058F00E94400740F029F45F3F29F00C945F
:100CC000370751110C9482070C943D070E945F076F
:100CD00068F39923B1F3552391F3951B550BBB276B
:100CE000AA2762177307840738F09F5F5F4F220FB0
:100CF000331F441FAA1FA9F335D00E2E3AF0E0E8A7
:100D000032D091505040E695001CCAF72BD0FE2FF0
:100D100029D0660F771F881FBB1F26173707480784
:100D2000AB07B0E809F0BB0B802DBF01FF2793583C
:100D30005F4F3AF09E3F510578F00C9437070C94C2
:100D400082075F3FE4F3983ED4F3869577956795E5
:100D5000B795F7959F5FC9F7880F911D9695879571
:100D600097F90895E1E0660F771F881FBB1F621790
:100D700073078407BA0720F0621B730B840BBA0B4E
:100D8000EE1F88F7E09508950E94CB066894B11194
:100D90000C94820708950E94670788F09F5798F087
:100DA000B92F9927B751B0F0E1F0660F771F881F70
:100DB000991F1AF0BA95C9F714C0B13091F00E948A
:100DC0008107B1E008950C948107672F782F882759
:100DD000B85F39F0B93FCCF3869577956795B395B1
:100DE000D9F73EF490958095709561957F4F8F4F20
:100DF0009F4F0895E89409C097FB3EF49095809525
:100E0000709561957F4F8F4F9F4F9923A9F0F92FD0
:100E100096E9BB279395F695879577956795B7954E
:100E2000F111F8CFFAF4BB0F11F460FF1BC06F5F34
:100E30007F4F8F4F9F4F16C0882311F096E911C046
:100E4000772321F09EE8872F762F05C0662371F067
:100E500096E8862F70E060E02AF09A95660F771F7B
:100E6000881FDAF7880F9695879597F9089597F96F
:100E70009F6780E870E060E008959FEF80EC089540
:100E800000240A9416161706180609060895002469
:100E90000A9412161306140605060895092E0394E3
:100EA000000C11F4882352F0BB0F40F4BF2B11F457
:100EB00060FF04C06F5F7F4F8F4F9F4F089557FDB6
:100EC0009058440F551F59F05F3F71F04795880FB8
:100ED00097FB991F61F09F3F79F08795089512164F
:100EE00013061406551FF2CF4695F1DF08C01616FB
:100EF00017061806991FF1CF8695710561050894AC
:100F00000895E894BB2766277727CB0197F90895C2
:100F10000E949B070C944E070E94400738F00E94E5
:100F2000470720F0952311F00C9437070C943D07E8
:100F300011240C9482070E945F0770F3959FC1F300
:100F4000950F50E0551F629FF001729FBB27F00D77
:100F5000B11D639FAA27F00DB11DAA1F649F6627CC
:100F6000B00DA11D661F829F2227B00DA11D621F1B
:100F7000739FB00DA11D621F839FA00D611D221FD5
:100F8000749F3327A00D611D231F849F600D211DB9
:100F9000822F762F6A2F11249F5750409AF0F1F03C
:100FA00088234AF0EE0FFF1FBB1F661F771F881FA5
:100FB00091505040A9F79E3F510580F00C9437079F
:100FC0000C9482075F3FE4F3983ED4F386957795BF
:100FD0006795B795F795E7959F5FC1F7FE2B880F4B
:100FE000911D9695879597F90895EE0FFF1F05902F
:100FF000F491E02D099481E090E0F8940C940008BD
:04100000F894FFCF92
:10100400000000003D0232024F0206022A021602CC
:021014000702D1
:107800000C94343C0C94513C0C94513C0C94513CE1
:107810000C94513C0C94513C0C94513C0C94513CB4
:107820000C94513C0C94513C0C94513C0C94513CA4
:107830000C94513C0C94513C0C94513C0C94513C94
:107840000C94513C0C94513C0C94513C0C94513C84
:107850000C94513C0C94513C0C94513C0C94513C74
:107860000C94513C0C94513C11241FBECFEFD8E036
:10787000DEBFCDBF11E0A0E0B1E0EAE8FFE702C063
:1078800005900D92A230B107D9F712E0A2E0B1E065
:1078900001C01D92AD30B107E1F70E942D3D0C945F
:1078A000C33F0C94003C982F95959595959595958B
:1078B000905D8F708A307CF0282F295A8091C0000B
:1078C00085FFFCCF9093C6008091C00085FFFCCF60
:1078D0002093C6000895282F205DF0CF982F809127
:1078E000C00085FFFCCF9093C6000895EF92FF92F1
:1078F0000F931F93EE24FF2487018091C00087FD22
:1079000017C00894E11CF11C011D111D81E2E8164D
:1079100081EAF80687E0080780E0180770F3E09135
:107920000401F091050109958091C00087FFE9CF1E
:107930008091C6001F910F91FF90EF9008950E94D3
:10794000763C982F8091C00085FFFCCF9093C600B5
:1079500091362CF490330CF09053892F089597555D
:10796000892F08951F930E949F3C182F0E949F3CCF
:107970001295107F810F1F9108951F93182F882350
:1079800021F00E94763C1150E1F71F9108951F935A
:10799000182F0E94763C803249F0809103018F5F5E
:1079A000809303018530C1F01F9108958091C0003C
:1079B00085FFFCCF84E18093C6008091C00085FFE5
:1079C000FCCF1093C6008091C00085FFFCCF80E102
:1079D0008093C6001F910895E0910401F091050184
:1079E00009951F9108950E94763C803241F0809164
:1079F00003018F5F80930301853081F008958091AA
:107A0000C00085FFFCCF84E18093C6008091C00058
:107A100085FFFCCF80E18093C6000895E0910401CA
:107A2000F09105010995089548EC50E08823A1F0F4
:107A30002D9A28EE33E0FA013197F1F721503040CA
:107A4000D1F72D9828EE33E0FA013197F1F7215064
:107A50003040D1F7815061F708953F924F925F9285
:107A60006F927F928F929F92AF92BF92CF92DF924E
:107A7000EF92FF920F931F93CF93DF93000082E06A
:107A80008093C00080E18093C4001092C50088E11B
:107A90008093C10086E08093C2005098589A259A3E
:107AA00081E00E94143D24E1F22E9EE1E92E85E959
:107AB000D82E0FE0C02E10E1B12EAA24A394B1E479
:107AC0009B2EA6E58A2EF2E57F2EE0E26E2E79E46B
:107AD000572E63E5462E50E5352E0E94763C8033C6
:107AE000B1F18133B9F1803409F46FC0813409F404
:107AF00076C0823409F485C0853409F488C08035A5
:107B000031F1823521F1813511F1853509F485C0D6
:107B1000863509F48DC0843609F496C0843709F49B
:107B200003C1853709F472C1863709F466C08091B4
:107B300003018F5F80930301853079F6E0910401A2
:107B4000F091050109950E94763C803351F60E9420
:107B5000F33CC3CF0E94763C803249F78091C0004D
:107B600085FFFCCFF092C6008091C00085FFFCCF5E
:107B70009092C6008091C00085FFFCCF8092C60025
:107B80008091C00085FFFCCF7092C6008091C0003C
:107B900085FFFCCF6092C6008091C00085FFFCCFBE
:107BA0005092C6008091C00085FFFCCF4092C60075
:107BB0008091C00085FFFCCF3092C6008091C0004C
:107BC00085FFFCCFB092C60088CF0E94763C8638F5
:107BD00008F4BDCF0E94763C0E94F33C7ECF0E9409
:107BE000763C803809F49CC0813809F40BC1823896
:107BF00009F430C1883909F48FC080E00E94C73C85
:107C00006CCF84E10E94BD3C0E94F33C66CF85E0CE
:107C10000E94BD3C0E94F33C60CF0E94763C809362
:107C200006010E94763C809307010E94F33C55CFE9
:107C30000E94763C803309F411C183E00E94BD3C70
:107C400080E00E94C73C49CF0E94763C80930902A5
:107C50000E94763C8093080280910C028E7F809374
:107C60000C020E94763C853409F409C18091080217
:107C700090910902892B89F000E010E00E94763C87
:107C8000F801E85FFE4F80830F5F1F4F809108026D
:107C9000909109020817190788F30E94763C8032F8
:107CA00009F045CF80910C0280FFF5C0609106017C
:107CB00070910701660F771F7093070160930601AB
:107CC000A0910802B09109021097C9F0E8E0F1E034
:107CD0009B01AD014E0F5F1FF999FECF32BD21BD53
:107CE000819180BDFA9AF99A2F5F3F4FE417F5070B
:107CF00099F76A0F7B1F70930701609306018091CB
:107D0000C00085FFFCCFF092C6008091C00085FFC7
:107D1000FCCFB092C600E1CE83E00E94C73CDDCE2E
:107D200082E00E94C73CD9CE0E94763C8093090233
:107D30000E94763C80930802809106019091070191
:107D4000880F991F90930701809306010E94763C4B
:107D5000853409F49AC080910C028E7F80930C02C6
:107D60000E94763C803209F0B8CE8091C00085FF39
:107D7000FCCFF092C600A0910802B09109021097C2
:107D8000C1F180910C02082F0170182F1695117007
:107D9000E0910601F0910701AF014F5F5F4FBA011B
:107DA00020E030E00023B1F4112339F49491809164
:107DB000C00085FFFCCF9093C6002F5F3F4FCB01E3
:107DC0000196FA012A173B0780F4BC014F5F5F4F11
:107DD000002351F3F999FECFF2BDE1BDF89A90B5B9
:107DE0008091C00085FFFCCFE6CF709307016093C0
:107DF00006018091C00085FDE5CE8091C00085FF21
:107E0000F8CFE0CE81E00E94C73C67CE0E94763C6E
:107E1000803209F08CCE8091C00085FFFCCFF092BB
:107E2000C6008091C00085FFFCCFE092C600809123
:107E3000C00085FFFCCFD092C6008091C00085FFB6
:107E4000FCCFC092C6008091C00085FFFCCFB092ED
:107E5000C60043CE80E10E94C73C3FCE0E94763CE4
:107E60000E94763C182F0E94763C112309F483C0AF
:107E7000113009F484C08FE00E94C73C2ECE80915F
:107E80000C02816080930C02F1CE80910C02816023
:107E900080930C0265CF809107018823880F880B9F
:107EA0008A2180930B028091060190910701880F2F
:107EB000991F90930701809306018091080280FF2B
:107EC00009C08091080290910902019690930902DD
:107ED00080930802F894F999FECF1127E0910601EA
:107EE000F0910701C8E0D1E0809108029091090269
:107EF000103091F40091570001700130D9F303E084
:107F000000935700E8950091570001700130D9F3B4
:107F100001E100935700E8950990199000915700EE
:107F200001700130D9F301E000935700E8951395F3
:107F3000103498F011270091570001700130D9F3E7
:107F400005E000935700E89500915700017001305B
:107F5000D9F301E100935700E8953296029709F0B2
:107F6000C7CF103011F00296E5CF11248091C000E8
:107F700085FFC5CEC8CE8EE10E94C73CAECD85E957
:0A7F80000E94C73CAACDF894FFCF81
:027F8A00800075
:040000030000780081
:00000001FF
